{
  "contractName": "UserList",
  "abi": [
    {
      "constant": true,
      "inputs": [],
      "name": "userCount",
      "outputs": [
        {
          "name": "",
          "type": "uint256"
        }
      ],
      "payable": false,
      "stateMutability": "view",
      "type": "function",
      "signature": "0x07973ccf"
    },
    {
      "constant": true,
      "inputs": [
        {
          "name": "",
          "type": "uint256"
        }
      ],
      "name": "users",
      "outputs": [
        {
          "name": "listNum",
          "type": "uint256"
        },
        {
          "name": "userID",
          "type": "uint256"
        }
      ],
      "payable": false,
      "stateMutability": "view",
      "type": "function",
      "signature": "0x365b98b2"
    },
    {
      "inputs": [],
      "payable": false,
      "stateMutability": "nonpayable",
      "type": "constructor",
      "signature": "constructor"
    },
    {
      "constant": false,
      "inputs": [
        {
          "name": "_userID",
          "type": "uint256"
        }
      ],
      "name": "createUser",
      "outputs": [],
      "payable": false,
      "stateMutability": "nonpayable",
      "type": "function",
      "signature": "0xffbdff66"
    }
  ],
  "bytecode": "0x60806040526000805534801561001457600080fd5b50610029615c1864010000000061002e810204565b610063565b600080546001908101808355604080518082018252828152602080820196875292855291839052909220915182559151910155565b610171806100726000396000f3fe6080604052600436106100565763ffffffff7c010000000000000000000000000000000000000000000000000000000060003504166307973ccf811461005b578063365b98b214610082578063ffbdff66146100c5575b600080fd5b34801561006757600080fd5b506100706100f1565b60408051918252519081900360200190f35b34801561008e57600080fd5b506100ac600480360360208110156100a557600080fd5b50356100f7565b6040805192835260208301919091528051918290030190f35b3480156100d157600080fd5b506100ef600480360360208110156100e857600080fd5b5035610110565b005b60005481565b6001602081905260009182526040909120805491015482565b60008054600190810180835560408051808201825282815260208082019687529285529183905290922091518255915191015556fea165627a7a723058206477a61c770ced7320ec8e13a2d5b1e4f7599a729e49775148b6b907866dc95f0029",
  "source": "pragma solidity ^0.5.0;\n\ncontract UserList {\n  uint public userCount = 0;\n\n  struct User {\n    uint listNum;\n    uint userID;\n  }\n\n  mapping(uint => User) public users;\n\n  constructor() public {\n    createUser(23576);\n  }\n\n  function createUser(uint _userID) public {\n    userCount ++;\n    users[userCount] = User(userCount, _userID);\n  }\n\n}\n",
  "sourcePath": "/home/cmcgrath/Documents/LabsLaunch/eth-new/contracts/UserList.sol",
  "compiler": {
    "name": "solc",
    "version": "0.5.0+commit.1d4f565a.Emscripten.clang"
  },
  "schemaVersion": "3.0.1",
  "updatedAt": "2019-08-28T22:57:09.538Z",
  "devdoc": {
    "methods": {}
  },
  "userdoc": {
    "methods": {}
  }
}