{
  "contractName": "UserList",
  "abi": [
    {
      "constant": true,
      "inputs": [],
      "name": "userCount",
      "outputs": [
        {
          "name": "",
          "type": "uint256"
        }
      ],
      "payable": false,
      "stateMutability": "view",
      "type": "function",
      "signature": "0x07973ccf"
    },
    {
      "constant": true,
      "inputs": [
        {
          "name": "",
          "type": "uint256"
        }
      ],
      "name": "users",
      "outputs": [
        {
          "name": "listNum",
          "type": "uint256"
        },
        {
          "name": "userID",
          "type": "uint256"
        }
      ],
      "payable": false,
      "stateMutability": "view",
      "type": "function",
      "signature": "0x365b98b2"
    },
    {
      "inputs": [],
      "payable": false,
      "stateMutability": "nonpayable",
      "type": "constructor",
      "signature": "constructor"
    },
    {
      "constant": false,
      "inputs": [
        {
          "name": "_userID",
          "type": "uint256"
        }
      ],
      "name": "createUser",
      "outputs": [],
      "payable": false,
      "stateMutability": "nonpayable",
      "type": "function",
      "signature": "0xffbdff66"
    }
  ],
  "bytecode": "0x60806040526000805534801561001457600080fd5b5061002f615c18610034640100000000026401000000009004565b61008a565b600080815480929190600101919050555060408051908101604052806000548152602001828152506001600080548152602001908152602001600020600082015181600001556020820151816001015590505050565b6101c4806100996000396000f3fe608060405260043610610057576000357c0100000000000000000000000000000000000000000000000000000000900463ffffffff16806307973ccf1461005c578063365b98b214610087578063ffbdff66146100dd575b600080fd5b34801561006857600080fd5b50610071610118565b6040518082815260200191505060405180910390f35b34801561009357600080fd5b506100c0600480360360208110156100aa57600080fd5b810190808035906020019092919050505061011e565b604051808381526020018281526020019250505060405180910390f35b3480156100e957600080fd5b506101166004803603602081101561010057600080fd5b8101908080359060200190929190505050610142565b005b60005481565b60016020528060005260406000206000915090508060000154908060010154905082565b60008081548092919060010191905055506040805190810160405280600054815260200182815250600160008054815260200190815260200160002060008201518160000155602082015181600101559050505056fea165627a7a72305820c5c56ad489b75599931994a471d522a30d5c228c3ad35b8ef52f8187f4d2bb660029",
  "source": "pragma solidity ^0.5.0;\n\ncontract UserList {\n  uint public userCount = 0;\n\n  struct User {\n    uint listNum;\n    uint userID;\n  }\n\n  mapping(uint => User) public users;\n\n  constructor() public {\n    createUser(23576);\n  }\n\n  function createUser(uint _userID) public {\n    userCount ++;\n    users[userCount] = User(userCount, _userID);\n  }\n\n}\n",
  "sourcePath": "/Code/src/dphale/eth-new/contracts/UserList.sol",
  "compiler": {
    "name": "solc",
    "version": "0.5.0+commit.1d4f565a.Emscripten.clang"
  },
  "schemaVersion": "3.0.1",
  "updatedAt": "2019-08-28T03:04:38.994Z",
  "devdoc": {
    "methods": {}
  },
  "userdoc": {
    "methods": {}
  }
}